{
  "contractName": "Elections",
  "abi": [
    {
      "constant": true,
      "inputs": [],
      "name": "candidatesCount",
      "outputs": [
        {
          "name": "",
          "type": "uint256"
        }
      ],
      "payable": false,
      "stateMutability": "view",
      "type": "function",
      "signature": "0x2d35a8a2"
    },
    {
      "constant": true,
      "inputs": [
        {
          "name": "",
          "type": "uint256"
        }
      ],
      "name": "candidates",
      "outputs": [
        {
          "name": "id",
          "type": "uint256"
        },
        {
          "name": "name",
          "type": "string"
        },
        {
          "name": "aadhar",
          "type": "string"
        },
        {
          "name": "zipCode",
          "type": "uint256"
        },
        {
          "name": "voteCount",
          "type": "uint256"
        }
      ],
      "payable": false,
      "stateMutability": "view",
      "type": "function",
      "signature": "0x3477ee2e"
    },
    {
      "constant": true,
      "inputs": [],
      "name": "votersCount",
      "outputs": [
        {
          "name": "",
          "type": "uint256"
        }
      ],
      "payable": false,
      "stateMutability": "view",
      "type": "function",
      "signature": "0x98c07938"
    },
    {
      "constant": true,
      "inputs": [
        {
          "name": "",
          "type": "uint256"
        }
      ],
      "name": "voters",
      "outputs": [
        {
          "name": "poll",
          "type": "address"
        },
        {
          "name": "aadhar",
          "type": "string"
        },
        {
          "name": "zipCode",
          "type": "uint256"
        },
        {
          "name": "candId",
          "type": "uint256"
        },
        {
          "name": "votedOn",
          "type": "uint256"
        }
      ],
      "payable": false,
      "stateMutability": "view",
      "type": "function",
      "signature": "0xda58c7d9"
    },
    {
      "inputs": [],
      "payable": false,
      "stateMutability": "nonpayable",
      "type": "constructor",
      "signature": "constructor"
    },
    {
      "anonymous": false,
      "inputs": [
        {
          "indexed": false,
          "name": "_candidateId",
          "type": "uint256"
        },
        {
          "indexed": false,
          "name": "_aadh",
          "type": "string"
        },
        {
          "indexed": false,
          "name": "_candName",
          "type": "string"
        },
        {
          "indexed": false,
          "name": "_time",
          "type": "uint256"
        }
      ],
      "name": "votedEvent",
      "type": "event",
      "signature": "0xd18b4174e1a70ec23f5424d203586a51f881bc6ea0f70e9a8cfc52f1b1b21c2b"
    },
    {
      "anonymous": false,
      "inputs": [
        {
          "indexed": false,
          "name": "_candidateId",
          "type": "uint256"
        },
        {
          "indexed": false,
          "name": "_aadh",
          "type": "string"
        },
        {
          "indexed": false,
          "name": "_candName",
          "type": "string"
        },
        {
          "indexed": false,
          "name": "_time",
          "type": "uint256"
        }
      ],
      "name": "candEvent",
      "type": "event",
      "signature": "0xd48038dba2416b34195c79cb41aa9dd332de4cedc7ed0949c270faaf35941a17"
    },
    {
      "constant": false,
      "inputs": [
        {
          "name": "_candId",
          "type": "uint256"
        },
        {
          "name": "_aadhar",
          "type": "string"
        },
        {
          "name": "_zipCode",
          "type": "uint256"
        },
        {
          "name": "has",
          "type": "bytes32"
        },
        {
          "name": "v",
          "type": "uint8"
        },
        {
          "name": "r",
          "type": "bytes32"
        },
        {
          "name": "s",
          "type": "bytes32"
        }
      ],
      "name": "castVote",
      "outputs": [
        {
          "name": "",
          "type": "string"
        }
      ],
      "payable": false,
      "stateMutability": "nonpayable",
      "type": "function",
      "signature": "0x2df1d564"
    },
    {
      "constant": false,
      "inputs": [
        {
          "name": "_name",
          "type": "string"
        },
        {
          "name": "_aadhar",
          "type": "string"
        },
        {
          "name": "_zipCode",
          "type": "uint256"
        },
        {
          "name": "has",
          "type": "bytes32"
        },
        {
          "name": "v",
          "type": "uint8"
        },
        {
          "name": "r",
          "type": "bytes32"
        },
        {
          "name": "s",
          "type": "bytes32"
        }
      ],
      "name": "regCand",
      "outputs": [
        {
          "name": "",
          "type": "bool"
        }
      ],
      "payable": false,
      "stateMutability": "nonpayable",
      "type": "function",
      "signature": "0x4f5e2cbf"
    },
    {
      "constant": true,
      "inputs": [
        {
          "name": "_aadhar",
          "type": "string"
        },
        {
          "name": "candId",
          "type": "uint256"
        },
        {
          "name": "has",
          "type": "bytes32"
        },
        {
          "name": "v",
          "type": "uint8"
        },
        {
          "name": "r",
          "type": "bytes32"
        },
        {
          "name": "s",
          "type": "bytes32"
        }
      ],
      "name": "verify",
      "outputs": [
        {
          "name": "",
          "type": "bool"
        }
      ],
      "payable": false,
      "stateMutability": "pure",
      "type": "function",
      "signature": "0xeae1b3e0"
    }
  ],
  "bytecode": "0x60806040523480156200001157600080fd5b506200009b6040805190810160405280600381526020017f4a617900000000000000000000000000000000000000000000000000000000008152506040805190810160405280600b81526020017f323332333432333432333400000000000000000000000000000000000000000081525062082656620001b3640100000000026401000000009004565b620001246040805190810160405280600681526020017f496e6469726100000000000000000000000000000000000000000000000000008152506040805190810160405280600a81526020017f323334323334323131320000000000000000000000000000000000000000000081525062082656620001b3640100000000026401000000009004565b620001ad6040805190810160405280600381526020017f41627600000000000000000000000000000000000000000000000000000000008152506040805190810160405280600a81526020017f323334323334323131320000000000000000000000000000000000000000000081525062082655620001b3640100000000026401000000009004565b62000317565b60046000815480929190600101919050555060a0604051908101604052806004548152602001848152602001838152602001828152602001600081525060008060045481526020019081526020016000206000820151816000015560208201518160010190805190602001906200022c92919062000268565b5060408201518160020190805190602001906200024b92919062000268565b506060820151816003015560808201518160040155905050505050565b828054600181600116156101000203166002900490600052602060002090601f016020900481019282601f10620002ab57805160ff1916838001178555620002dc565b82800160010185558215620002dc579182015b82811115620002db578251825591602001919060010190620002be565b5b509050620002eb9190620002ef565b5090565b6200031491905b8082111562000310576000816000905550600101620002f6565b5090565b90565b61152f80620003276000396000f3fe608060405260043610610083576000357c0100000000000000000000000000000000000000000000000000000000900463ffffffff1680632d35a8a2146100885780632df1d564146100b35780633477ee2e146102335780634f5e2cbf1461036857806398c0793814610514578063da58c7d91461053f578063eae1b3e01461063b575b600080fd5b34801561009457600080fd5b5061009d610750565b6040518082815260200191505060405180910390f35b3480156100bf57600080fd5b506101b8600480360360e08110156100d657600080fd5b8101908080359060200190929190803590602001906401000000008111156100fd57600080fd5b82018360208201111561010f57600080fd5b8035906020019184600183028401116401000000008311171561013157600080fd5b91908080601f016020809104026020016040519081016040528093929190818152602001838380828437600081840152601f19601f8201169050808301925050505050505091929192908035906020019092919080359060200190929190803560ff1690602001909291908035906020019092919080359060200190929190505050610756565b6040518080602001828103825283818151815260200191508051906020019080838360005b838110156101f85780820151818401526020810190506101dd565b50505050905090810190601f1680156102255780820380516001836020036101000a031916815260200191505b509250505060405180910390f35b34801561023f57600080fd5b5061026c6004803603602081101561025657600080fd5b8101908080359060200190929190505050610c63565b604051808681526020018060200180602001858152602001848152602001838103835287818151815260200191508051906020019080838360005b838110156102c25780820151818401526020810190506102a7565b50505050905090810190601f1680156102ef5780820380516001836020036101000a031916815260200191505b50838103825286818151815260200191508051906020019080838360005b8381101561032857808201518184015260208101905061030d565b50505050905090810190601f1680156103555780820380516001836020036101000a031916815260200191505b5097505050505050505060405180910390f35b34801561037457600080fd5b506104fa600480360360e081101561038b57600080fd5b81019080803590602001906401000000008111156103a857600080fd5b8201836020820111156103ba57600080fd5b803590602001918460018302840111640100000000831117156103dc57600080fd5b91908080601f016020809104026020016040519081016040528093929190818152602001838380828437600081840152601f19601f8201169050808301925050505050505091929192908035906020019064010000000081111561043f57600080fd5b82018360208201111561045157600080fd5b8035906020019184600183028401116401000000008311171561047357600080fd5b91908080601f016020809104026020016040519081016040528093929190818152602001838380828437600081840152601f19601f8201169050808301925050505050505091929192908035906020019092919080359060200190929190803560ff1690602001909291908035906020019092919080359060200190929190505050610dc9565b604051808215151515815260200191505060405180910390f35b34801561052057600080fd5b5061052961108e565b6040518082815260200191505060405180910390f35b34801561054b57600080fd5b506105786004803603602081101561056257600080fd5b8101908080359060200190929190505050611094565b604051808673ffffffffffffffffffffffffffffffffffffffff1673ffffffffffffffffffffffffffffffffffffffff16815260200180602001858152602001848152602001838152602001828103825286818151815260200191508051906020019080838360005b838110156105fc5780820151818401526020810190506105e1565b50505050905090810190601f1680156106295780820380516001836020036101000a031916815260200191505b50965050505050505060405180910390f35b34801561064757600080fd5b50610736600480360360c081101561065e57600080fd5b810190808035906020019064010000000081111561067b57600080fd5b82018360208201111561068d57600080fd5b803590602001918460018302840111640100000000831117156106af57600080fd5b91908080601f016020809104026020016040519081016040528093929190818152602001838380828437600081840152601f19601f8201169050808301925050505050505091929192908035906020019092919080359060200190929190803560ff1690602001909291908035906020019092919080359060200190929190505050611182565b604051808215151515815260200191505060405180910390f35b60045481565b60606002876040518082805190602001908083835b602083101515610790578051825260208201915060208101905060208303925061076b565b6001836020036101000a038019825116818451168082178552505050505050905001915050908152602001604051809103902060009054906101000a900460ff1615151561086c576040517f08c379a00000000000000000000000000000000000000000000000000000000081526004018080602001828103825260288152602001807f566f746520616c72656164792063617374656420666f7220746865206769766581526020017f6e2061616468617200000000000000000000000000000000000000000000000081525060400191505060405180910390fd5b60008811801561087e57506004548811155b15156108f2576040517f08c379a00000000000000000000000000000000000000000000000000000000081526004018080602001828103825260118152602001807f496e76616c69642063616e64696461746500000000000000000000000000000081525060200191505060405180910390fd5b610900878987878787611182565b15610c1f576000808981526020019081526020016000206004016000815480929190600101919050555060016002886040518082805190602001908083835b602083101515610964578051825260208201915060208101905060208303925061093f565b6001836020036101000a038019825116818451168082178552505050505050905001915050908152602001604051809103902060006101000a81548160ff02191690831515021790555060056000815480929190600101919050555060a0604051908101604052803373ffffffffffffffffffffffffffffffffffffffff1681526020018881526020018781526020018981526020014281525060036000600554815260200190815260200160002060008201518160000160006101000a81548173ffffffffffffffffffffffffffffffffffffffff021916908373ffffffffffffffffffffffffffffffffffffffff1602179055506020820151816001019080519060200190610a7692919061145e565b506040820151816002015560608201518160030155608082015181600401559050507fd18b4174e1a70ec23f5424d203586a51f881bc6ea0f70e9a8cfc52f1b1b21c2b88886000808c815260200190815260200160002060010142604051808581526020018060200180602001848152602001838103835286818151815260200191508051906020019080838360005b83811015610b21578082015181840152602081019050610b06565b50505050905090810190601f168015610b4e5780820380516001836020036101000a031916815260200191505b50838103825285818154600181600116156101000203166002900481526020019150805460018160011615610100020316600290048015610bd05780601f10610ba557610100808354040283529160200191610bd0565b820191906000526020600020905b815481529060010190602001808311610bb357829003601f168201915b5050965050505050505060405180910390a16040805190810160405280601081526020017f566f7465205375636365737366756c2e000000000000000000000000000000008152509050610c58565b6040805190810160405280600d81526020017f566f746520496e76616c69642e0000000000000000000000000000000000000081525090505b979650505050505050565b6000602052806000526040600020600091509050806000015490806001018054600181600116156101000203166002900480601f016020809104026020016040519081016040528092919081815260200182805460018160011615610100020316600290048015610d155780601f10610cea57610100808354040283529160200191610d15565b820191906000526020600020905b815481529060010190602001808311610cf857829003601f168201915b505050505090806002018054600181600116156101000203166002900480601f016020809104026020016040519081016040528092919081815260200182805460018160011615610100020316600290048015610db35780601f10610d8857610100808354040283529160200191610db3565b820191906000526020600020905b815481529060010190602001808311610d9657829003601f168201915b5050505050908060030154908060040154905085565b60006001876040518082805190602001908083835b602083101515610e035780518252602082019150602081019050602083039250610dde565b6001836020036101000a038019825116818451168082178552505050505050905001915050908152602001604051809103902060009054906101000a900460ff16151515610eb9576040517f08c379a000000000000000000000000000000000000000000000000000000000815260040180806020018281038252601d8152602001807f43616e64696461746520616c726561647920726567697374657265642e00000081525060200191505060405180910390fd5b610ec7878787878787611182565b1561107e57600180886040518082805190602001908083835b602083101515610f055780518252602082019150602081019050602083039250610ee0565b6001836020036101000a038019825116818451168082178552505050505050905001915050908152602001604051809103902060006101000a81548160ff021916908315150217905550610f5a8888886113ad565b7fd48038dba2416b34195c79cb41aa9dd332de4cedc7ed0949c270faaf35941a17600454888a42604051808581526020018060200180602001848152602001838103835286818151815260200191508051906020019080838360005b83811015610fd1578082015181840152602081019050610fb6565b50505050905090810190601f168015610ffe5780820380516001836020036101000a031916815260200191505b50838103825285818151815260200191508051906020019080838360005b8381101561103757808201518184015260208101905061101c565b50505050905090810190601f1680156110645780820380516001836020036101000a031916815260200191505b50965050505050505060405180910390a160019050611083565b600090505b979650505050505050565b60055481565b60036020528060005260406000206000915090508060000160009054906101000a900473ffffffffffffffffffffffffffffffffffffffff1690806001018054600181600116156101000203166002900480601f0160208091040260200160405190810160405280929190818152602001828054600181600116156101000203166002900480156111665780601f1061113b57610100808354040283529160200191611166565b820191906000526020600020905b81548152906001019060200180831161114957829003601f168201915b5050505050908060020154908060030154908060040154905085565b600060606040805190810160405280601c81526020017f19457468657265756d205369676e6564204d6573736167653a0a333200000000815250905060008189896040516020018083805190602001908083835b6020831015156111fb57805182526020820191506020810190506020830392506111d6565b6001836020036101000a038019825116818451168082178552505050505050905001807f7c0000000000000000000000000000000000000000000000000000000000000081525060010182815260200192505050604051602081830303815290604052805190602001206040516020018083805190602001908083835b60208310151561129d5780518252602082019150602081019050602083039250611278565b6001836020036101000a0380198251168184511680821785525050505050509050018281526020019250505060405160208183030381529060405280519060200120905080871415156112f5576000925050506113a3565b73ec00ff95053fe967c5f66119526735010b58660d73ffffffffffffffffffffffffffffffffffffffff1660018888888860405160008152602001604052604051808581526020018460ff1660ff1681526020018381526020018281526020019450505050506020604051602081039080840390855afa15801561137d573d6000803e3d6000fd5b5050506020604051035173ffffffffffffffffffffffffffffffffffffffff1614925050505b9695505050505050565b60046000815480929190600101919050555060a06040519081016040528060045481526020018481526020018381526020018281526020016000815250600080600454815260200190815260200160002060008201518160000155602082015181600101908051906020019061142492919061145e565b50604082015181600201908051906020019061144192919061145e565b506060820151816003015560808201518160040155905050505050565b828054600181600116156101000203166002900490600052602060002090601f016020900481019282601f1061149f57805160ff19168380011785556114cd565b828001600101855582156114cd579182015b828111156114cc5782518255916020019190600101906114b1565b5b5090506114da91906114de565b5090565b61150091905b808211156114fc5760008160009055506001016114e4565b5090565b9056fea165627a7a723058205a4eb9685b65165e5c16759775b8f31f5c0e729af50a1bf7b2164ef5e5669d180029",
  "source": "pragma solidity ^0.5.0;\n\n//Contract declaration\ncontract Elections{\n\n    //Creating a structure to model candidate\n    struct Candidate {\n        uint id;\n        string name;\n        string aadhar;\n        uint zipCode;\n        uint voteCount;\n    }\n\n    struct Voter {\n        address poll;\n        string aadhar;\n        uint zipCode;\n        uint candId;\n        uint votedOn;\n    }\n\n    //use mapping for candidates\n    mapping(uint => Candidate) public candidates; \n    mapping(string => bool) private candidate;\n\n    mapping(string => bool) private voter;\n    mapping(uint => Voter) public voters;\n\n    //count of candidates\n    uint public candidatesCount;\n    uint public votersCount;\n\n    event votedEvent (\n        uint _candidateId,\n        string _aadh,\n        string _candName,\n        uint _time\n    );\n\n    event candEvent (\n        uint _candidateId,\n        string _aadh,\n        string _candName,\n        uint _time\n    );\n\n    constructor() public {\n        addCandidate(\"Jay\",\"23234234234\",534102);\n        addCandidate(\"Indira\",\"2342342112\",534102);\n        addCandidate(\"Abv\",\"2342342112\",534101);\n    }\n\n    //add candidate\n    function addCandidate(string memory _name, string memory _aadhar, uint _zipCode) private {\n        candidatesCount++;\n        candidates[candidatesCount] = Candidate(candidatesCount, _name, _aadhar, _zipCode, 0);\n    }\n\n    function castVote(uint _candId, string memory _aadhar, uint _zipCode, bytes32 has, uint8 v, bytes32 r, bytes32 s) \n        public returns (string memory) {\n        require(!voter[_aadhar], \"Vote already casted for the given aadhar\");\n        require(_candId > 0 && _candId <= candidatesCount, \"Invalid candidate\");\n\n        if(verify(_aadhar, _candId, has, v, r, s)){\n            candidates[_candId].voteCount++;\n            voter[_aadhar] = true;\n            votersCount++;\n            voters[votersCount] = Voter(msg.sender, _aadhar, _zipCode, _candId, block.timestamp);\n            emit votedEvent(_candId, _aadhar, candidates[_candId].name, block.timestamp);\n            return \"Vote Successful.\";\n        }else{\n            return \"Vote Invalid.\";\n        }\n    }\n\n    function regCand(string memory _name, string memory _aadhar, uint _zipCode, bytes32 has, uint8 v, bytes32 r, bytes32 s)\n        public returns (bool){\n\n        require(!candidate[_aadhar], \"Candidate already registered.\");\n\n        if(verify(_aadhar, _zipCode, has, v, r, s)){\n            candidate[_aadhar] = true;\n            addCandidate(_name, _aadhar, _zipCode);\n            emit candEvent(candidatesCount, _aadhar, _name, block.timestamp);\n            return true;\n        }\n        return false;        \n    }\n    \n    function verify(string memory _aadhar, uint candId, bytes32 has, uint8 v, bytes32 r, bytes32 s) public pure returns(bool) {\n        bytes memory hashPrefix = \"\\x19Ethereum Signed Message:\\n32\";\n        bytes32 has1 = keccak256(abi.encodePacked(hashPrefix,keccak256(abi.encodePacked(_aadhar, \"|\", candId))));\n        if(has != has1)\n            return false;\n        return ecrecover(has, v, r, s) == 0xEC00fF95053FE967C5f66119526735010B58660D;\n    }\n\n\n    \n   /* function ttt() public {\n        string memory _aadh = \"2347237498237947\";\n        string memory ch = \"|\";\n        uint _candId = 22;\n        //bytes32 can = uintToBytes(_candId);\n        bytes memory hashPrefix = \"\\x19Ethereum Signed Message:\\n32\";\n        test = keccak256(abi.encodePacked(_aadh, ch, _candId));\n        test = keccak256(abi.encodePacked(hashPrefix,test));\n    } */\n    /*function verify(bytes32 has, uint8 v, bytes32 r, bytes32 s) public returns(bool) {\n        //bytes memory prefix = \"\\x19Ethereum Signed Message:\\n32\";\n        //bytes32 prefixedHash = keccak256(abi.encodePacked(prefix, has));\n        test2 = ecrecover(has, v, r, s);\n        return true;\n    }*/\n}\n",
  "sourcePath": "/home/jay/github/Blockchain/Elections/contracts/Elections.sol",
  "compiler": {
    "name": "solc",
    "version": "0.5.0+commit.1d4f565a.Emscripten.clang"
  },
  "schemaVersion": "3.0.1",
  "updatedAt": "2019-02-06T10:48:05.826Z",
  "devdoc": {
    "methods": {}
  },
  "userdoc": {
    "methods": {}
  }
}